{
  "abi": [
    {
      "inputs": [
        {
          "internalType": "string",
          "name": "name",
          "type": "string"
        },
        {
          "internalType": "string",
          "name": "symbol",
          "type": "string"
        },
        {
          "internalType": "address",
          "name": "_manager",
          "type": "address"
        },
        {
          "internalType": "address",
          "name": "_accountant",
          "type": "address"
        },
        {
          "internalType": "address",
          "name": "_fundSafe",
          "type": "address"
        },
        {
          "internalType": "address",
          "name": "_baseAsset",
          "type": "address"
        },
        {
          "internalType": "uint256",
          "name": "_feeRate",
          "type": "uint256"
        },
        {
          "internalType": "uint256",
          "name": "_performanceFee",
          "type": "uint256"
        }
      ],
      "stateMutability": "nonpayable",
      "type": "constructor"
    },
    {
      "inputs": [
        {
          "internalType": "address",
          "name": "guard_",
          "type": "address"
        }
      ],
      "name": "NotIERC165Compliant",
      "type": "error"
    },
    {
      "anonymous": false,
      "inputs": [
        {
          "indexed": true,
          "internalType": "address",
          "name": "owner",
          "type": "address"
        },
        {
          "indexed": true,
          "internalType": "address",
          "name": "spender",
          "type": "address"
        },
        {
          "indexed": false,
          "internalType": "uint256",
          "name": "value",
          "type": "uint256"
        }
      ],
      "name": "Approval",
      "type": "event"
    },
    {
      "anonymous": false,
      "inputs": [
        {
          "indexed": true,
          "internalType": "address",
          "name": "previousAvatar",
          "type": "address"
        },
        {
          "indexed": true,
          "internalType": "address",
          "name": "newAvatar",
          "type": "address"
        }
      ],
      "name": "AvatarSet",
      "type": "event"
    },
    {
      "anonymous": false,
      "inputs": [
        {
          "indexed": false,
          "internalType": "address",
          "name": "guard",
          "type": "address"
        }
      ],
      "name": "ChangedGuard",
      "type": "event"
    },
    {
      "anonymous": false,
      "inputs": [
        {
          "indexed": false,
          "internalType": "uint8",
          "name": "version",
          "type": "uint8"
        }
      ],
      "name": "Initialized",
      "type": "event"
    },
    {
      "anonymous": false,
      "inputs": [
        {
          "indexed": true,
          "internalType": "address",
          "name": "previousOwner",
          "type": "address"
        },
        {
          "indexed": true,
          "internalType": "address",
          "name": "newOwner",
          "type": "address"
        }
      ],
      "name": "OwnershipTransferred",
      "type": "event"
    },
    {
      "anonymous": false,
      "inputs": [
        {
          "indexed": true,
          "internalType": "address",
          "name": "previousTarget",
          "type": "address"
        },
        {
          "indexed": true,
          "internalType": "address",
          "name": "newTarget",
          "type": "address"
        }
      ],
      "name": "TargetSet",
      "type": "event"
    },
    {
      "anonymous": false,
      "inputs": [
        {
          "indexed": true,
          "internalType": "address",
          "name": "from",
          "type": "address"
        },
        {
          "indexed": true,
          "internalType": "address",
          "name": "to",
          "type": "address"
        },
        {
          "indexed": false,
          "internalType": "uint256",
          "name": "value",
          "type": "uint256"
        }
      ],
      "name": "Transfer",
      "type": "event"
    },
    {
      "inputs": [],
      "name": "accountant",
      "outputs": [
        {
          "internalType": "address",
          "name": "",
          "type": "address"
        }
      ],
      "stateMutability": "view",
      "type": "function"
    },
    {
      "inputs": [
        {
          "internalType": "address",
          "name": "_address",
          "type": "address"
        }
      ],
      "name": "addToWhitelist",
      "outputs": [],
      "stateMutability": "nonpayable",
      "type": "function"
    },
    {
      "inputs": [
        {
          "internalType": "address",
          "name": "owner",
          "type": "address"
        },
        {
          "internalType": "address",
          "name": "spender",
          "type": "address"
        }
      ],
      "name": "allowance",
      "outputs": [
        {
          "internalType": "uint256",
          "name": "",
          "type": "uint256"
        }
      ],
      "stateMutability": "view",
      "type": "function"
    },
    {
      "inputs": [
        {
          "internalType": "address",
          "name": "spender",
          "type": "address"
        },
        {
          "internalType": "uint256",
          "name": "amount",
          "type": "uint256"
        }
      ],
      "name": "approve",
      "outputs": [
        {
          "internalType": "bool",
          "name": "",
          "type": "bool"
        }
      ],
      "stateMutability": "nonpayable",
      "type": "function"
    },
    {
      "inputs": [],
      "name": "avatar",
      "outputs": [
        {
          "internalType": "address",
          "name": "",
          "type": "address"
        }
      ],
      "stateMutability": "view",
      "type": "function"
    },
    {
      "inputs": [
        {
          "internalType": "address",
          "name": "account",
          "type": "address"
        }
      ],
      "name": "balanceOf",
      "outputs": [
        {
          "internalType": "uint256",
          "name": "",
          "type": "uint256"
        }
      ],
      "stateMutability": "view",
      "type": "function"
    },
    {
      "inputs": [],
      "name": "baseAsset",
      "outputs": [
        {
          "internalType": "contract IERC20Metadata",
          "name": "",
          "type": "address"
        }
      ],
      "stateMutability": "view",
      "type": "function"
    },
    {
      "inputs": [],
      "name": "baseAssetValuation",
      "outputs": [],
      "stateMutability": "nonpayable",
      "type": "function"
    },
    {
      "inputs": [
        {
          "internalType": "address",
          "name": "newBaseAsset",
          "type": "address"
        }
      ],
      "name": "changeBaseAsset",
      "outputs": [],
      "stateMutability": "nonpayable",
      "type": "function"
    },
    {
      "inputs": [],
      "name": "claimFees",
      "outputs": [],
      "stateMutability": "nonpayable",
      "type": "function"
    },
    {
      "inputs": [
        {
          "internalType": "uint256",
          "name": "netAssetValue",
          "type": "uint256"
        }
      ],
      "name": "customValuation",
      "outputs": [],
      "stateMutability": "nonpayable",
      "type": "function"
    },
    {
      "inputs": [],
      "name": "decimals",
      "outputs": [
        {
          "internalType": "uint8",
          "name": "",
          "type": "uint8"
        }
      ],
      "stateMutability": "view",
      "type": "function"
    },
    {
      "inputs": [
        {
          "internalType": "address",
          "name": "spender",
          "type": "address"
        },
        {
          "internalType": "uint256",
          "name": "subtractedValue",
          "type": "uint256"
        }
      ],
      "name": "decreaseAllowance",
      "outputs": [
        {
          "internalType": "bool",
          "name": "",
          "type": "bool"
        }
      ],
      "stateMutability": "nonpayable",
      "type": "function"
    },
    {
      "inputs": [],
      "name": "feeRate",
      "outputs": [
        {
          "internalType": "uint256",
          "name": "",
          "type": "uint256"
        }
      ],
      "stateMutability": "view",
      "type": "function"
    },
    {
      "inputs": [],
      "name": "fundSafe",
      "outputs": [
        {
          "internalType": "address",
          "name": "",
          "type": "address"
        }
      ],
      "stateMutability": "view",
      "type": "function"
    },
    {
      "inputs": [],
      "name": "getGuard",
      "outputs": [
        {
          "internalType": "address",
          "name": "_guard",
          "type": "address"
        }
      ],
      "stateMutability": "view",
      "type": "function"
    },
    {
      "inputs": [],
      "name": "guard",
      "outputs": [
        {
          "internalType": "address",
          "name": "",
          "type": "address"
        }
      ],
      "stateMutability": "view",
      "type": "function"
    },
    {
      "inputs": [],
      "name": "highWaterMark",
      "outputs": [
        {
          "internalType": "uint256",
          "name": "",
          "type": "uint256"
        }
      ],
      "stateMutability": "view",
      "type": "function"
    },
    {
      "inputs": [
        {
          "internalType": "address",
          "name": "spender",
          "type": "address"
        },
        {
          "internalType": "uint256",
          "name": "addedValue",
          "type": "uint256"
        }
      ],
      "name": "increaseAllowance",
      "outputs": [
        {
          "internalType": "bool",
          "name": "",
          "type": "bool"
        }
      ],
      "stateMutability": "nonpayable",
      "type": "function"
    },
    {
      "inputs": [
        {
          "internalType": "uint256",
          "name": "_amount",
          "type": "uint256"
        }
      ],
      "name": "invest",
      "outputs": [],
      "stateMutability": "nonpayable",
      "type": "function"
    },
    {
      "inputs": [],
      "name": "lastClaimTime",
      "outputs": [
        {
          "internalType": "uint256",
          "name": "",
          "type": "uint256"
        }
      ],
      "stateMutability": "view",
      "type": "function"
    },
    {
      "inputs": [],
      "name": "lastValuationTime",
      "outputs": [
        {
          "internalType": "uint256",
          "name": "",
          "type": "uint256"
        }
      ],
      "stateMutability": "view",
      "type": "function"
    },
    {
      "inputs": [],
      "name": "manager",
      "outputs": [
        {
          "internalType": "address",
          "name": "",
          "type": "address"
        }
      ],
      "stateMutability": "view",
      "type": "function"
    },
    {
      "inputs": [],
      "name": "name",
      "outputs": [
        {
          "internalType": "string",
          "name": "",
          "type": "string"
        }
      ],
      "stateMutability": "view",
      "type": "function"
    },
    {
      "inputs": [],
      "name": "owner",
      "outputs": [
        {
          "internalType": "address",
          "name": "",
          "type": "address"
        }
      ],
      "stateMutability": "view",
      "type": "function"
    },
    {
      "inputs": [],
      "name": "performanceFee",
      "outputs": [
        {
          "internalType": "uint256",
          "name": "",
          "type": "uint256"
        }
      ],
      "stateMutability": "view",
      "type": "function"
    },
    {
      "inputs": [
        {
          "internalType": "address",
          "name": "_address",
          "type": "address"
        }
      ],
      "name": "removeFromWhitelist",
      "outputs": [],
      "stateMutability": "nonpayable",
      "type": "function"
    },
    {
      "inputs": [],
      "name": "renounceOwnership",
      "outputs": [],
      "stateMutability": "nonpayable",
      "type": "function"
    },
    {
      "inputs": [
        {
          "internalType": "address",
          "name": "_avatar",
          "type": "address"
        }
      ],
      "name": "setAvatar",
      "outputs": [],
      "stateMutability": "nonpayable",
      "type": "function"
    },
    {
      "inputs": [
        {
          "internalType": "address",
          "name": "_guard",
          "type": "address"
        }
      ],
      "name": "setGuard",
      "outputs": [],
      "stateMutability": "nonpayable",
      "type": "function"
    },
    {
      "inputs": [
        {
          "internalType": "address",
          "name": "_target",
          "type": "address"
        }
      ],
      "name": "setTarget",
      "outputs": [],
      "stateMutability": "nonpayable",
      "type": "function"
    },
    {
      "inputs": [
        {
          "internalType": "bytes",
          "name": "initializeParams",
          "type": "bytes"
        }
      ],
      "name": "setUp",
      "outputs": [],
      "stateMutability": "nonpayable",
      "type": "function"
    },
    {
      "inputs": [],
      "name": "sharePrice",
      "outputs": [
        {
          "internalType": "uint256",
          "name": "",
          "type": "uint256"
        }
      ],
      "stateMutability": "view",
      "type": "function"
    },
    {
      "inputs": [],
      "name": "symbol",
      "outputs": [
        {
          "internalType": "string",
          "name": "",
          "type": "string"
        }
      ],
      "stateMutability": "view",
      "type": "function"
    },
    {
      "inputs": [],
      "name": "target",
      "outputs": [
        {
          "internalType": "address",
          "name": "",
          "type": "address"
        }
      ],
      "stateMutability": "view",
      "type": "function"
    },
    {
      "inputs": [],
      "name": "totalAssets",
      "outputs": [
        {
          "internalType": "uint256",
          "name": "",
          "type": "uint256"
        }
      ],
      "stateMutability": "view",
      "type": "function"
    },
    {
      "inputs": [],
      "name": "totalSupply",
      "outputs": [
        {
          "internalType": "uint256",
          "name": "",
          "type": "uint256"
        }
      ],
      "stateMutability": "view",
      "type": "function"
    },
    {
      "inputs": [
        {
          "internalType": "address",
          "name": "to",
          "type": "address"
        },
        {
          "internalType": "uint256",
          "name": "amount",
          "type": "uint256"
        }
      ],
      "name": "transfer",
      "outputs": [
        {
          "internalType": "bool",
          "name": "",
          "type": "bool"
        }
      ],
      "stateMutability": "nonpayable",
      "type": "function"
    },
    {
      "inputs": [
        {
          "internalType": "address",
          "name": "from",
          "type": "address"
        },
        {
          "internalType": "address",
          "name": "to",
          "type": "address"
        },
        {
          "internalType": "uint256",
          "name": "amount",
          "type": "uint256"
        }
      ],
      "name": "transferFrom",
      "outputs": [
        {
          "internalType": "bool",
          "name": "",
          "type": "bool"
        }
      ],
      "stateMutability": "nonpayable",
      "type": "function"
    },
    {
      "inputs": [
        {
          "internalType": "address",
          "name": "newOwner",
          "type": "address"
        }
      ],
      "name": "transferOwnership",
      "outputs": [],
      "stateMutability": "nonpayable",
      "type": "function"
    },
    {
      "inputs": [
        {
          "internalType": "address",
          "name": "",
          "type": "address"
        }
      ],
      "name": "whitelist",
      "outputs": [
        {
          "internalType": "bool",
          "name": "",
          "type": "bool"
        }
      ],
      "stateMutability": "view",
      "type": "function"
    },
    {
      "inputs": [
        {
          "internalType": "uint256",
          "name": "_shares",
          "type": "uint256"
        }
      ],
      "name": "withdraw",
      "outputs": [],
      "stateMutability": "nonpayable",
      "type": "function"
    }
  ],
  "bytecode": {
    "object": "0x60806040523480156200001157600080fd5b5060405162002ad338038062002ad3833981016040819052620000349162000648565b8787606b620000448382620007a9565b50606c620000538282620007a9565b5050604080516001600160a01b0389811660208301528881168284015287811660608301528616608082015260a0810185905260c08082018590528251808303909101815260e09091019091529050620000ad81620000bc565b505050505050505050620008f1565b600054610100900460ff1615808015620000dd5750600054600160ff909116105b80620000f95750303b158015620000f9575060005460ff166001145b620001625760405162461bcd60e51b815260206004820152602e60248201527f496e697469616c697a61626c653a20636f6e747261637420697320616c72656160448201526d191e481a5b9a5d1a585b1a5e995960921b60648201526084015b60405180910390fd5b6000805460ff19166001179055801562000186576000805461ff0019166101001790555b62000190620002b9565b60008060008060008087806020019051810190620001af919062000875565b606e80546001600160a01b038089166001600160a01b03199283161790925560708054838916908316179055606f80548388169083168117909155600060715560016072819055426073819055607491909155607586905560768590556077556078805493871693909216929092179055959b509399509197509550935091506200023a9062000321565b606f5462000251906001600160a01b03166200037d565b606f5462000268906001600160a01b0316620003d9565b5050505050508015620002b5576000805461ff0019169055604051600181527f7f26b83ff96e1f2b6a682f133852f6798a09c465da95921460cefb38474024989060200160405180910390a15b5050565b600054610100900460ff16620003155760405162461bcd60e51b815260206004820152602b602482015260008051602062002ab383398151915260448201526a6e697469616c697a696e6760a81b606482015260840162000159565b6200031f62000458565b565b6200032b620004bf565b606680546001600160a01b038381166001600160a01b0319831681179093556040519116919082907f52ae88b092de36f87fb43fe794eb1381023b9c1bce563a871154022c63dce34290600090a35050565b62000387620004bf565b606780546001600160a01b038381166001600160a01b0319831681179093556040519116919082907f90cc2f570a6eb594b1580ea3e41247d2d73a55281889e86bd4ec2fc29c7e62d690600090a35050565b620003e3620004bf565b6001600160a01b0381166200044a5760405162461bcd60e51b815260206004820152602660248201527f4f776e61626c653a206e6577206f776e657220697320746865207a65726f206160448201526564647265737360d01b606482015260840162000159565b62000455816200051b565b50565b600054610100900460ff16620004b45760405162461bcd60e51b815260206004820152602b602482015260008051602062002ab383398151915260448201526a6e697469616c697a696e6760a81b606482015260840162000159565b6200031f336200051b565b6033546001600160a01b031633146200031f5760405162461bcd60e51b815260206004820181905260248201527f4f776e61626c653a2063616c6c6572206973206e6f7420746865206f776e6572604482015260640162000159565b603380546001600160a01b038381166001600160a01b0319831681179093556040519116919082907f8be0079c531659141344cd1fd0a4f28419497f9722a3daafe3b4186f6b6457e090600090a35050565b634e487b7160e01b600052604160045260246000fd5b600082601f8301126200059557600080fd5b81516001600160401b0380821115620005b257620005b26200056d565b604051601f8301601f19908116603f01168101908282118183101715620005dd57620005dd6200056d565b81604052838152602092508683858801011115620005fa57600080fd5b600091505b838210156200061e5785820183015181830184015290820190620005ff565b600093810190920192909252949350505050565b6001600160a01b03811681146200045557600080fd5b600080600080600080600080610100898b0312156200066657600080fd5b88516001600160401b03808211156200067e57600080fd5b6200068c8c838d0162000583565b995060208b0151915080821115620006a357600080fd5b50620006b28b828c0162000583565b9750506040890151620006c58162000632565b60608a0151909650620006d88162000632565b60808a0151909550620006eb8162000632565b60a08a0151909450620006fe8162000632565b60c08a015160e0909a0151989b979a5095989497939692505050565b600181811c908216806200072f57607f821691505b6020821081036200075057634e487b7160e01b600052602260045260246000fd5b50919050565b601f821115620007a457600081815260208120601f850160051c810160208610156200077f5750805b601f850160051c820191505b81811015620007a0578281556001016200078b565b5050505b505050565b81516001600160401b03811115620007c557620007c56200056d565b620007dd81620007d684546200071a565b8462000756565b602080601f831160018114620008155760008415620007fc5750858301515b600019600386901b1c1916600185901b178555620007a0565b600085815260208120601f198616915b82811015620008465788860151825594840194600190910190840162000825565b5085821015620008655787850151600019600388901b60f8161c191681555b5050505050600190811b01905550565b60008060008060008060c087890312156200088f57600080fd5b86516200089c8162000632565b6020880151909650620008af8162000632565b6040880151909550620008c28162000632565b6060880151909450620008d58162000632565b809350506080870151915060a087015190509295509295509295565b6121b280620009016000396000f3fe608060405234801561001057600080fd5b506004361061025e5760003560e01c80638726972911610146578063c21bae0c116100c3578063d4b8399211610087578063d4b83992146104ef578063d65c35d714610502578063dd62ed3e14610515578063e19a9dd914610528578063e43252d71461053b578063f2fde38b1461054e57600080fd5b8063c21bae0c146104b1578063c61a44fc146104ba578063c9106389146104c3578063cdf456e1146104d4578063d294f093146104e757600080fd5b8063978bbdb91161010a578063978bbdb91461044c5780639b19251a14610455578063a457c2d714610478578063a4f9edbf1461048b578063a9059cbb1461049e57600080fd5b8063872697291461040e57806387788782146104175780638ab1d681146104205780638da5cb5b1461043357806395d89b411461044457600080fd5b806330b428a9116101df5780634fb3ccc5116101a35780634fb3ccc5146103915780635aef7de6146103a457806370a08231146103b7578063715018a6146103e0578063776d1a01146103e85780637ceab3b1146103fb57600080fd5b806330b428a914610329578063313ce5671461033157806339509351146103405780634184b5af14610353578063481c6a751461037e57600080fd5b80631e8410da116102265780631e8410da146102d457806323b872dd146102dd57806327630217146102f05780632afcf480146103035780632e1a7d4d1461031657600080fd5b806301e1d1141461026357806306fdde031461027f578063086cfca814610294578063095ea7b3146102a957806318160ddd146102cc575b600080fd5b61026c60715481565b6040519081526020015b60405180910390f35b610287610561565b6040516102769190611ca4565b6102a76102a2366004611cd3565b6105f3565b005b6102bc6102b7366004611cf0565b61064d565b6040519015158152602001610276565b606a5461026c565b61026c60745481565b6102bc6102eb366004611d1c565b610667565b6102a76102fe366004611cd3565b61068b565b6102a7610311366004611d5d565b6106fb565b6102a7610324366004611d5d565b610912565b6102a7610b31565b60405160128152602001610276565b6102bc61034e366004611cf0565b610c98565b606f54610366906001600160a01b031681565b6040516001600160a01b039091168152602001610276565b606e54610366906001600160a01b031681565b607054610366906001600160a01b031681565b606654610366906001600160a01b031681565b61026c6103c5366004611cd3565b6001600160a01b031660009081526068602052604090205490565b6102a7610cba565b6102a76103f6366004611cd3565b610cce565b606554610366906001600160a01b031681565b61026c60725481565b61026c60765481565b6102a761042e366004611cd3565b610d28565b6033546001600160a01b0316610366565b610287610d73565b61026c60755481565b6102bc610463366004611cd3565b606d6020526000908152604090205460ff1681565b6102bc610486366004611cf0565b610d82565b6102a7610499366004611d8c565b610dfd565b6102bc6104ac366004611cf0565b610fe4565b61026c60735481565b61026c60775481565b6065546001600160a01b0316610366565b607854610366906001600160a01b031681565b6102a7610ff2565b606754610366906001600160a01b031681565b6102a7610510366004611d5d565b61106d565b61026c610523366004611e3d565b6110a8565b6102a7610536366004611cd3565b6110d3565b6102a7610549366004611cd3565b6111d5565b6102a761055c366004611cd3565b611223565b6060606b805461057090611e76565b80601f016020809104026020016040519081016040528092919081815260200182805461059c90611e76565b80156105e95780601f106105be576101008083540402835291602001916105e9565b820191906000526020600020905b8154815290600101906020018083116105cc57829003601f168201915b5050505050905090565b6105fb61129c565b606680546001600160a01b038381166001600160a01b0319831681179093556040519116919082907f52ae88b092de36f87fb43fe794eb1381023b9c1bce563a871154022c63dce34290600090a35050565b60003361065b8185856112f6565b60019150505b92915050565b60003361067585828561141b565b610680858585611495565b506001949350505050565b61069361129c565b6001600160a01b0381166106d95760405162461bcd60e51b8152602060048201526008602482015267216164647265737360c01b60448201526064015b60405180910390fd5b607880546001600160a01b0319166001600160a01b0392909216919091179055565b336000908152606d602052604090205460ff16151560011461075f5760405162461bcd60e51b815260206004820152601a60248201527f43616c6c6572206973206e6f742077686974656c69737465642e00000000000060448201526064016106d0565b6000811161079c5760405162461bcd60e51b815260206004820152600a6024820152690496e76657374203e20360b41b60448201526064016106d0565b610e10607754426107ad9190611ec6565b11156107ed5760405162461bcd60e51b815260206004820152600f60248201526e39ba30b632afbb30b63ab0ba34b7b760891b60448201526064016106d0565b607854606f546040516323b872dd60e01b81523360048201526001600160a01b039182166024820152604481018490529116906323b872dd906064016020604051808303816000875af1158015610848573d6000803e3d6000fd5b505050506040513d601f19601f8201168201806040525081019061086c9190611ed9565b508061087781611640565b606a54156108c757607154670de0b6b3a7640000610894606a5490565b61089e9085611efb565b6108a89190611f12565b6108ba90670de0b6b3a7640000611efb565b6108c49190611f12565b90505b6108d13382611685565b81607160008282546108e39190611f34565b9091555050606a545b60715461090190670de0b6b3a7640000611efb565b61090b9190611f12565b6072555050565b336000908152606d602052604090205460ff1615156001146109765760405162461bcd60e51b815260206004820152601a60248201527f43616c6c6572206973206e6f742077686974656c69737465642e00000000000060448201526064016106d0565b610e10607754426109879190611ec6565b1115610a055760405162461bcd60e51b815260206004820152604160248201527f5769746864726177616c732063616e206f6e6c79206265206d6164652077697460448201527f68696e203120686f7572206f6620746865206c6173742076616c756174696f6e6064820152601760f91b608482015260a4016106d0565b610a0d611746565b33600090815260686020526040902054811115610a635760405162461bcd60e51b815260206004820152601460248201527324b739bab33334b1b4b2b73a1039b430b932b99760611b60448201526064016106d0565b6000670de0b6b3a764000060725483610a7c9190611efb565b610a869190611f12565b60785460405133602482015260448101839052919250610af5916001600160a01b039091169060009063a9059cbb60e01b906064015b60408051601f198184030181529190526020810180516001600160e01b03166001600160e01b031990931692909217909152600061180a565b50610b003383611a13565b80607154610b0e9190611ec6565b607155670de0b6b3a7640000607255606a5415610b2d57606a546108ec565b5050565b6070546001600160a01b03163314610b5b5760405162461bcd60e51b81526004016106d090611f47565b42607755607854606f546040516370a0823160e01b81526001600160a01b03918216600482015260009291909116906370a0823190602401602060405180830381865afa158015610bb0573d6000803e3d6000fd5b505050506040513d601f19601f82011682018060405250810190610bd49190611f92565b9050607860009054906101000a90046001600160a01b03166001600160a01b031663313ce5676040518163ffffffff1660e01b8152600401602060405180830381865afa158015610c29573d6000803e3d6000fd5b505050506040513d601f19601f82011682018060405250810190610c4d9190611fab565b60ff16610c6282670de0b6b3a7640000611efb565b610c6c9190611f12565b607155606a545b607154610c8890670de0b6b3a7640000611efb565b610c929190611f12565b60725550565b60003361065b818585610cab83836110a8565b610cb59190611f34565b6112f6565b610cc261129c565b610ccc6000611b3f565b565b610cd661129c565b606780546001600160a01b038381166001600160a01b0319831681179093556040519116919082907f90cc2f570a6eb594b1580ea3e41247d2d73a55281889e86bd4ec2fc29c7e62d690600090a35050565b6070546001600160a01b03163314610d525760405162461bcd60e51b81526004016106d090611f47565b6001600160a01b03166000908152606d60205260409020805460ff19169055565b6060606c805461057090611e76565b60003381610d9082866110a8565b905083811015610df05760405162461bcd60e51b815260206004820152602560248201527f45524332303a2064656372656173656420616c6c6f77616e63652062656c6f77604482015264207a65726f60d81b60648201526084016106d0565b61068082868684036112f6565b600054610100900460ff1615808015610e1d5750600054600160ff909116105b80610e375750303b158015610e37575060005460ff166001145b610e9a5760405162461bcd60e51b815260206004820152602e60248201527f496e697469616c697a61626c653a20636f6e747261637420697320616c72656160448201526d191e481a5b9a5d1a585b1a5e995960921b60648201526084016106d0565b6000805460ff191660011790558015610ebd576000805461ff0019166101001790555b610ec5611b91565b60008060008060008087806020019051810190610ee29190611fce565b606e80546001600160a01b038089166001600160a01b03199283161790925560708054838916908316179055606f80548388169083168117909155600060715560016072819055426073819055607491909155607586905560768590556077556078805493871693909216929092179055959b50939950919750955093509150610f6b906105f3565b606f54610f80906001600160a01b0316610cce565b606f54610f95906001600160a01b0316611223565b5050505050508015610b2d576000805461ff0019169055604051600181527f7f26b83ff96e1f2b6a682f133852f6798a09c465da95921460cefb38474024989060200160405180910390a15050565b60003361065b818585611495565b606e546001600160a01b0316331461105d5760405162461bcd60e51b815260206004820152602860248201527f4f6e6c7920746865206d616e616765722063616e2063616c6c207468697320666044820152673ab731ba34b7b71760c11b60648201526084016106d0565b611065611746565b610ccc611bc0565b6070546001600160a01b031633146110975760405162461bcd60e51b81526004016106d090611f47565b426077556071819055606a54610c73565b6001600160a01b03918216600090815260696020908152604080832093909416825291909152205490565b6110db61129c565b6001600160a01b03811615611181576040516301ffc9a760e01b815263736bd41d60e11b60048201526001600160a01b038216906301ffc9a790602401602060405180830381865afa158015611135573d6000803e3d6000fd5b505050506040513d601f19601f820116820180604052508101906111599190611ed9565b611181576040516358b7533f60e11b81526001600160a01b03821660048201526024016106d0565b606580546001600160a01b0319166001600160a01b0383169081179091556040519081527f1151116914515bc0891ff9047a6cb32cf902546f83066499bcf8ba33d2353fa29060200160405180910390a150565b6070546001600160a01b031633146111ff5760405162461bcd60e51b81526004016106d090611f47565b6001600160a01b03166000908152606d60205260409020805460ff19166001179055565b61122b61129c565b6001600160a01b0381166112905760405162461bcd60e51b815260206004820152602660248201527f4f776e61626c653a206e6577206f776e657220697320746865207a65726f206160448201526564647265737360d01b60648201526084016106d0565b61129981611b3f565b50565b6033546001600160a01b03163314610ccc5760405162461bcd60e51b815260206004820181905260248201527f4f776e61626c653a2063616c6c6572206973206e6f7420746865206f776e657260448201526064016106d0565b6001600160a01b0383166113585760405162461bcd60e51b8152602060048201526024808201527f45524332303a20617070726f76652066726f6d20746865207a65726f206164646044820152637265737360e01b60648201526084016106d0565b6001600160a01b0382166113b95760405162461bcd60e51b815260206004820152602260248201527f45524332303a20617070726f766520746f20746865207a65726f206164647265604482015261737360f01b60648201526084016106d0565b6001600160a01b0383811660008181526069602090815260408083209487168084529482529182902085905590518481527f8c5be1e5ebec7d5bd14f71427d1e84f3dd0314c0f7b2291e5b200ac8c7c3b92591015b60405180910390a3505050565b600061142784846110a8565b9050600019811461148f57818110156114825760405162461bcd60e51b815260206004820152601d60248201527f45524332303a20696e73756666696369656e7420616c6c6f77616e636500000060448201526064016106d0565b61148f84848484036112f6565b50505050565b6001600160a01b0383166114f95760405162461bcd60e51b815260206004820152602560248201527f45524332303a207472616e736665722066726f6d20746865207a65726f206164604482015264647265737360d81b60648201526084016106d0565b6001600160a01b03821661155b5760405162461bcd60e51b815260206004820152602360248201527f45524332303a207472616e7366657220746f20746865207a65726f206164647260448201526265737360e81b60648201526084016106d0565b6001600160a01b038316600090815260686020526040902054818110156115d35760405162461bcd60e51b815260206004820152602660248201527f45524332303a207472616e7366657220616d6f756e7420657863656564732062604482015265616c616e636560d01b60648201526084016106d0565b6001600160a01b0380851660008181526068602052604080822086860390559286168082529083902080548601905591517fddf252ad1be2c89b69c2b068fc378daa952ba7f163c4a11628f55a4df523b3ef906116339086815260200190565b60405180910390a361148f565b6112998160405160240161165691815260200190565b60408051601f198184030181529190526020810180516001600160e01b031663f5b1bba960e01b179052611c0d565b6001600160a01b0382166116db5760405162461bcd60e51b815260206004820152601f60248201527f45524332303a206d696e7420746f20746865207a65726f20616464726573730060448201526064016106d0565b80606a60008282546116ed9190611f34565b90915550506001600160a01b0382166000818152606860209081526040808320805486019055518481527fddf252ad1be2c89b69c2b068fc378daa952ba7f163c4a11628f55a4df523b3ef910160405180910390a35050565b62278d00607354426117589190611ec6565b1115610ccc576074546072541115610ccc576000670de0b6b3a7640000607654611781606a5490565b6074546072546117919190611ec6565b61179b9190611efb565b6117a59190611efb565b6117af9190611f12565b6072546074556071549091506117c6908290611ec6565b60715542607355607854606e546040516001600160a01b03918216602482015260448101849052610b2d92919091169060009063a9059cbb60e01b90606401610abc565b6065546000906001600160a01b0316801561198e576040805180820182526002815261060f60f31b60208201529051633af85da960e11b81526001600160a01b038316916375f0bb5291611875918a918a918a918a9160009182918291829182913390600401612063565b600060405180830381600087803b15801561188f57600080fd5b505af11580156118a3573d6000803e3d6000fd5b505060675460405163468721a760e01b81526001600160a01b03909116925063468721a791506118dd9089908990899089906004016120f2565b6020604051808303816000875af11580156118fc573d6000803e3d6000fd5b505050506040513d601f19601f820116820180604052508101906119209190611ed9565b604051631264e26d60e31b815261060f60f31b600482015281151560248201529092506001600160a01b03821690639327136890604401600060405180830381600087803b15801561197157600080fd5b505af1158015611985573d6000803e3d6000fd5b50505050611a0a565b60675460405163468721a760e01b81526001600160a01b039091169063468721a7906119c49089908990899089906004016120f2565b6020604051808303816000875af11580156119e3573d6000803e3d6000fd5b505050506040513d601f19601f82011682018060405250810190611a079190611ed9565b91505b50949350505050565b6001600160a01b038216611a735760405162461bcd60e51b815260206004820152602160248201527f45524332303a206275726e2066726f6d20746865207a65726f206164647265736044820152607360f81b60648201526084016106d0565b6001600160a01b03821660009081526068602052604090205481811015611ae75760405162461bcd60e51b815260206004820152602260248201527f45524332303a206275726e20616d6f756e7420657863656564732062616c616e604482015261636560f01b60648201526084016106d0565b6001600160a01b03831660008181526068602090815260408083208686039055606a80548790039055518581529192917fddf252ad1be2c89b69c2b068fc378daa952ba7f163c4a11628f55a4df523b3ef910161140e565b603380546001600160a01b038381166001600160a01b0319831681179093556040519116919082907f8be0079c531659141344cd1fd0a4f28419497f9722a3daafe3b4186f6b6457e090600090a35050565b600054610100900460ff16611bb85760405162461bcd60e51b81526004016106d090612131565b610ccc611c2e565b62278d0060735442611bd29190611ec6565b1115610ccc576000670de0b6b3a7640000607554607154611bf39190611efb565b611bfd9190611f12565b9050806071546117c69190611ec6565b80516a636f6e736f6c652e6c6f67602083016000808483855afa5050505050565b600054610100900460ff16611c555760405162461bcd60e51b81526004016106d090612131565b610ccc33611b3f565b6000815180845260005b81811015611c8457602081850181015186830182015201611c68565b506000602082860101526020601f19601f83011685010191505092915050565b602081526000611cb76020830184611c5e565b9392505050565b6001600160a01b038116811461129957600080fd5b600060208284031215611ce557600080fd5b8135611cb781611cbe565b60008060408385031215611d0357600080fd5b8235611d0e81611cbe565b946020939093013593505050565b600080600060608486031215611d3157600080fd5b8335611d3c81611cbe565b92506020840135611d4c81611cbe565b929592945050506040919091013590565b600060208284031215611d6f57600080fd5b5035919050565b634e487b7160e01b600052604160045260246000fd5b600060208284031215611d9e57600080fd5b813567ffffffffffffffff80821115611db657600080fd5b818401915084601f830112611dca57600080fd5b813581811115611ddc57611ddc611d76565b604051601f8201601f19908116603f01168101908382118183101715611e0457611e04611d76565b81604052828152876020848701011115611e1d57600080fd5b826020860160208301376000928101602001929092525095945050505050565b60008060408385031215611e5057600080fd5b8235611e5b81611cbe565b91506020830135611e6b81611cbe565b809150509250929050565b600181811c90821680611e8a57607f821691505b602082108103611eaa57634e487b7160e01b600052602260045260246000fd5b50919050565b634e487b7160e01b600052601160045260246000fd5b8181038181111561066157610661611eb0565b600060208284031215611eeb57600080fd5b81518015158114611cb757600080fd5b808202811582820484141761066157610661611eb0565b600082611f2f57634e487b7160e01b600052601260045260246000fd5b500490565b8082018082111561066157610661611eb0565b6020808252602b908201527f4f6e6c7920746865206163636f756e74616e742063616e2063616c6c2074686960408201526a3990333ab731ba34b7b71760a91b606082015260800190565b600060208284031215611fa457600080fd5b5051919050565b600060208284031215611fbd57600080fd5b815160ff81168114611cb757600080fd5b60008060008060008060c08789031215611fe757600080fd5b8651611ff281611cbe565b602088015190965061200381611cbe565b604088015190955061201481611cbe565b606088015190945061202581611cbe565b809350506080870151915060a087015190509295509295509295565b6002811061205f57634e487b7160e01b600052602160045260246000fd5b9052565b6001600160a01b038c81168252602082018c9052610160604083018190526000916120908483018e611c5e565b915061209f606085018d612041565b8a60808501528960a08501528860c085015280881660e08501528087166101008501528382036101208501526120d58287611c5e565b925080851661014085015250509c9b505050505050505050505050565b60018060a01b03851681528360208201526080604082015260006121196080830185611c5e565b90506121286060830184612041565b95945050505050565b6020808252602b908201527f496e697469616c697a61626c653a20636f6e7472616374206973206e6f74206960408201526a6e697469616c697a696e6760a81b60608201526080019056fea2646970667358221220cfc3c6945ac8ffe20d44a0060d4da694d1ecd383fff42325745269388f921e4964736f6c63430008130033496e697469616c697a61626c653a20636f6e7472616374206973206e6f742069",
    "linkReferences": {}
  },
  "methodIdentifiers": {
    "accountant()": "4fb3ccc5",
    "addToWhitelist(address)": "e43252d7",
    "allowance(address,address)": "dd62ed3e",
    "approve(address,uint256)": "095ea7b3",
    "avatar()": "5aef7de6",
    "balanceOf(address)": "70a08231",
    "baseAsset()": "cdf456e1",
    "baseAssetValuation()": "30b428a9",
    "changeBaseAsset(address)": "27630217",
    "claimFees()": "d294f093",
    "customValuation(uint256)": "d65c35d7",
    "decimals()": "313ce567",
    "decreaseAllowance(address,uint256)": "a457c2d7",
    "feeRate()": "978bbdb9",
    "fundSafe()": "4184b5af",
    "getGuard()": "c9106389",
    "guard()": "7ceab3b1",
    "highWaterMark()": "1e8410da",
    "increaseAllowance(address,uint256)": "39509351",
    "invest(uint256)": "2afcf480",
    "lastClaimTime()": "c21bae0c",
    "lastValuationTime()": "c61a44fc",
    "manager()": "481c6a75",
    "name()": "06fdde03",
    "owner()": "8da5cb5b",
    "performanceFee()": "87788782",
    "removeFromWhitelist(address)": "8ab1d681",
    "renounceOwnership()": "715018a6",
    "setAvatar(address)": "086cfca8",
    "setGuard(address)": "e19a9dd9",
    "setTarget(address)": "776d1a01",
    "setUp(bytes)": "a4f9edbf",
    "sharePrice()": "87269729",
    "symbol()": "95d89b41",
    "target()": "d4b83992",
    "totalAssets()": "01e1d114",
    "totalSupply()": "18160ddd",
    "transfer(address,uint256)": "a9059cbb",
    "transferFrom(address,address,uint256)": "23b872dd",
    "transferOwnership(address)": "f2fde38b",
    "whitelist(address)": "9b19251a",
    "withdraw(uint256)": "2e1a7d4d"
  },
  "id": 36
}